{
  "contractName": "Base",
  "abi": [
    {
      "constant": false,
      "inputs": [],
      "name": "resume",
      "outputs": [],
      "payable": false,
      "stateMutability": "nonpayable",
      "type": "function"
    },
    {
      "constant": false,
      "inputs": [
        {
          "name": "_address",
          "type": "address"
        },
        {
          "name": "_amount",
          "type": "uint256"
        }
      ],
      "name": "refund",
      "outputs": [
        {
          "name": "success",
          "type": "bool"
        }
      ],
      "payable": false,
      "stateMutability": "nonpayable",
      "type": "function"
    },
    {
      "constant": false,
      "inputs": [],
      "name": "kill",
      "outputs": [],
      "payable": false,
      "stateMutability": "nonpayable",
      "type": "function"
    },
    {
      "constant": false,
      "inputs": [],
      "name": "pause",
      "outputs": [],
      "payable": false,
      "stateMutability": "nonpayable",
      "type": "function"
    },
    {
      "constant": true,
      "inputs": [],
      "name": "getOwner",
      "outputs": [
        {
          "name": "_owner",
          "type": "address"
        }
      ],
      "payable": false,
      "stateMutability": "view",
      "type": "function"
    },
    {
      "constant": true,
      "inputs": [],
      "name": "getIsPaused",
      "outputs": [
        {
          "name": "_isPaused",
          "type": "bool"
        }
      ],
      "payable": false,
      "stateMutability": "view",
      "type": "function"
    },
    {
      "constant": false,
      "inputs": [
        {
          "name": "_newOwner",
          "type": "address"
        }
      ],
      "name": "transferOwnership",
      "outputs": [
        {
          "name": "success",
          "type": "bool"
        }
      ],
      "payable": false,
      "stateMutability": "nonpayable",
      "type": "function"
    },
    {
      "inputs": [],
      "payable": false,
      "stateMutability": "nonpayable",
      "type": "constructor"
    },
    {
      "anonymous": false,
      "inputs": [
        {
          "indexed": false,
          "name": "_who",
          "type": "address"
        }
      ],
      "name": "LogBaseNew",
      "type": "event"
    },
    {
      "anonymous": false,
      "inputs": [
        {
          "indexed": false,
          "name": "_who",
          "type": "address"
        },
        {
          "indexed": false,
          "name": "_newOwner",
          "type": "address"
        }
      ],
      "name": "LogBaseOwnershipTransfer",
      "type": "event"
    },
    {
      "anonymous": false,
      "inputs": [
        {
          "indexed": false,
          "name": "_who",
          "type": "address"
        }
      ],
      "name": "LogBaseKill",
      "type": "event"
    },
    {
      "anonymous": false,
      "inputs": [
        {
          "indexed": false,
          "name": "_who",
          "type": "address"
        }
      ],
      "name": "LogBasePause",
      "type": "event"
    },
    {
      "anonymous": false,
      "inputs": [
        {
          "indexed": false,
          "name": "_who",
          "type": "address"
        }
      ],
      "name": "LogBaseResume",
      "type": "event"
    },
    {
      "anonymous": false,
      "inputs": [
        {
          "indexed": false,
          "name": "_who",
          "type": "address"
        },
        {
          "indexed": false,
          "name": "_beneficiary",
          "type": "address"
        },
        {
          "indexed": false,
          "name": "_amount",
          "type": "uint256"
        }
      ],
      "name": "LogBaseRefund",
      "type": "event"
    }
  ],
  "bytecode": "0x6060604052341561000f57600080fd5b336000806101000a81548173ffffffffffffffffffffffffffffffffffffffff021916908373ffffffffffffffffffffffffffffffffffffffff1602179055507f59b3194dfc787131e1f0b5e5d979534b6f8fa6183ffd4354019608d73ca4b01933604051808273ffffffffffffffffffffffffffffffffffffffff1673ffffffffffffffffffffffffffffffffffffffff16815260200191505060405180910390a161089a806100c16000396000f300606060405260043610610083576000357c0100000000000000000000000000000000000000000000000000000000900463ffffffff168063046f7da214610088578063410085df1461009d57806341c0e1b5146100f75780638456cb591461010c578063893d20e814610121578063f2a6f21514610176578063f2fde38b146101a3575b600080fd5b341561009357600080fd5b61009b6101f4565b005b34156100a857600080fd5b6100dd600480803573ffffffffffffffffffffffffffffffffffffffff169060200190919080359060200190919050506102e9565b604051808215151515815260200191505060405180910390f35b341561010257600080fd5b61010a6104ac565b005b341561011757600080fd5b61011f6105bf565b005b341561012c57600080fd5b61013461069a565b604051808273ffffffffffffffffffffffffffffffffffffffff1673ffffffffffffffffffffffffffffffffffffffff16815260200191505060405180910390f35b341561018157600080fd5b6101896106c3565b604051808215151515815260200191505060405180910390f35b34156101ae57600080fd5b6101da600480803573ffffffffffffffffffffffffffffffffffffffff169060200190919050506106d9565b604051808215151515815260200191505060405180910390f35b6000809054906101000a900473ffffffffffffffffffffffffffffffffffffffff1673ffffffffffffffffffffffffffffffffffffffff163373ffffffffffffffffffffffffffffffffffffffff1614151561024f57600080fd5b600060149054906101000a900460ff16151561026a57600080fd5b60008060146101000a81548160ff0219169083151502179055507f935023dab1fdc2298f34e47cb038bce5605a89352061ea050c9a82e9a7fe8dd533604051808273ffffffffffffffffffffffffffffffffffffffff1673ffffffffffffffffffffffffffffffffffffffff16815260200191505060405180910390a1565b60008060009054906101000a900473ffffffffffffffffffffffffffffffffffffffff1673ffffffffffffffffffffffffffffffffffffffff163373ffffffffffffffffffffffffffffffffffffffff1614151561034657600080fd5b600060149054906101000a900460ff16151561036157600080fd5b3073ffffffffffffffffffffffffffffffffffffffff1631821115151561038757600080fd5b600073ffffffffffffffffffffffffffffffffffffffff168373ffffffffffffffffffffffffffffffffffffffff16141515156103c357600080fd5b8273ffffffffffffffffffffffffffffffffffffffff166108fc839081150290604051600060405180830381858888f19350505050151561040357600080fd5b7f39604ecb37528c9e5b51016f436c34ff021fbc8b8b571804619b63419aeceb23338484604051808473ffffffffffffffffffffffffffffffffffffffff1673ffffffffffffffffffffffffffffffffffffffff1681526020018373ffffffffffffffffffffffffffffffffffffffff1673ffffffffffffffffffffffffffffffffffffffff168152602001828152602001935050505060405180910390a16001905092915050565b6000809054906101000a900473ffffffffffffffffffffffffffffffffffffffff1673ffffffffffffffffffffffffffffffffffffffff163373ffffffffffffffffffffffffffffffffffffffff1614151561050757600080fd5b600060149054906101000a900460ff16151561052257600080fd5b7f7c0bec85e4f968da2787075047431bdd12d695e98331d72c1065ac304f69e2cd33604051808273ffffffffffffffffffffffffffffffffffffffff1673ffffffffffffffffffffffffffffffffffffffff16815260200191505060405180910390a16000809054906101000a900473ffffffffffffffffffffffffffffffffffffffff1673ffffffffffffffffffffffffffffffffffffffff16ff5b6000809054906101000a900473ffffffffffffffffffffffffffffffffffffffff1673ffffffffffffffffffffffffffffffffffffffff163373ffffffffffffffffffffffffffffffffffffffff1614151561061a57600080fd5b6001600060146101000a81548160ff0219169083151502179055507fb64d4e5021b4e07197d1509fd3704ea459785e21df417821cb7e9f0c7aa8276233604051808273ffffffffffffffffffffffffffffffffffffffff1673ffffffffffffffffffffffffffffffffffffffff16815260200191505060405180910390a1565b60008060009054906101000a900473ffffffffffffffffffffffffffffffffffffffff16905090565b60008060149054906101000a900460ff16905090565b60008060009054906101000a900473ffffffffffffffffffffffffffffffffffffffff1673ffffffffffffffffffffffffffffffffffffffff163373ffffffffffffffffffffffffffffffffffffffff1614151561073657600080fd5b600060149054906101000a900460ff1615151561075257600080fd5b600073ffffffffffffffffffffffffffffffffffffffff168273ffffffffffffffffffffffffffffffffffffffff161415151561078e57600080fd5b816000806101000a81548173ffffffffffffffffffffffffffffffffffffffff021916908373ffffffffffffffffffffffffffffffffffffffff1602179055507f4f75a40fb0157e6709f983a263a266cef8b0c3764d8ff94d77abe451264efa273383604051808373ffffffffffffffffffffffffffffffffffffffff1673ffffffffffffffffffffffffffffffffffffffff1681526020018273ffffffffffffffffffffffffffffffffffffffff1673ffffffffffffffffffffffffffffffffffffffff1681526020019250505060405180910390a1600190509190505600a165627a7a72305820d3e70f7719a615fbf118705dacd5ab5e338e683ec13cba31ec9b3e9adfc769a80029",
  "source": "pragma solidity ^0.4.4;\n\n//\n// Base contract to inherit in all contracts\n//\n\ncontract Base {\n    address private owner;\n    bool private isPaused;\n\n    function getOwner() public constant returns (address _owner) {\n        return owner;\n    }\n\n    function getIsPaused() public constant returns (bool _isPaused) {\n        return isPaused;\n    }\n\n    modifier onlyOwner() {\n        require(msg.sender == owner);\n        _;\n    }\n\n    modifier isNotPaused() {\n        require(!isPaused);\n        _;\n    }\n\n    event LogBaseNew (address _who);\n\n    function Base() public {\n        owner = msg.sender;\n        LogBaseNew(msg.sender);\n    }\n\n    event LogBaseOwnershipTransfer (address _who, address _newOwner);\n    // Function to transfer ownership to a different owner\n    // Requires:\n    //  - Only owner can execute\n    //  - Contract not paused\n    //  - New Owner is not 0x0\n    function transferOwnership(address _newOwner) onlyOwner isNotPaused public returns(bool success) {\n        require (_newOwner != address(0));\n\n        owner = _newOwner;\n\n        LogBaseOwnershipTransfer(msg.sender, _newOwner);\n        return true;\n    }\n\n    event LogBaseKill (address _who);\n    // Destruct the contract and sends any stored value to owner\n    // Requires:\n    //  - Only owner can execute\n    //  - Contract is paused\n    function kill() onlyOwner public {\n        require (isPaused);\n\n        LogBaseKill (msg.sender);\n\n        selfdestruct(owner);\n    }\n\n    event LogBasePause(address _who);\n    // Pause the contract. This modifier will prevent calling functions to execute if the contract is paused\n    // Requires:\n    //  - Only owner can execute\n    function pause() onlyOwner public {\n        isPaused = true;\n        LogBasePause(msg.sender);\n    }\n\n    event LogBaseResume(address _who);\n    // Resume contract from Pause\n    // Requires:\n    //  - Contract to be paused\n    function resume() onlyOwner public {\n        require (isPaused);\n\n        isPaused = false;\n        LogBaseResume(msg.sender);\n    }\n\n    event LogBaseRefund(address _who, address _beneficiary, uint _amount);\n    // Function that allows the owner to refund any available amount to any address\n    // To be used in case that the contract is paused with funds inside that need to be refunded\n    // Requires:\n    //  - The contract to be paused\n    //  - _amount to be <= this.balance\n    //  - _address not to be 0x0\n    function refund(address _address, uint _amount) onlyOwner public returns(bool success) {\n        require(isPaused);\n        require(_amount <= this.balance);\n        require(_address != address(0));\n\n        _address.transfer(_amount);\n\n        LogBaseRefund(msg.sender, _address,_amount);\n        return true;\n    }\n}",
  "sourcePath": "/home/jordi/b9/Unit4/SP_Remit/contracts/Base.sol",
  "compiler": {
    "name": "solc",
    "version": "0.4.18+commit.9cf6e910.Emscripten.clang"
  },
  "schemaVersion": "1.0.1",
  "updatedAt": "2018-02-01T09:14:12.814Z"
}