{
  "contractName": "Remittance",
  "abi": [
    {
      "constant": true,
      "inputs": [
        {
          "name": "_exchange",
          "type": "address"
        },
        {
          "name": "_pwdBeneficiary",
          "type": "bytes32"
        },
        {
          "name": "_pwdExchange",
          "type": "bytes32"
        }
      ],
      "name": "newHashTicketTransferExchange",
      "outputs": [
        {
          "name": "_hashTicket",
          "type": "bytes32"
        }
      ],
      "payable": false,
      "stateMutability": "pure",
      "type": "function"
    },
    {
      "constant": false,
      "inputs": [],
      "name": "stopContract",
      "outputs": [
        {
          "name": "_success",
          "type": "bool"
        }
      ],
      "payable": false,
      "stateMutability": "nonpayable",
      "type": "function"
    },
    {
      "constant": true,
      "inputs": [],
      "name": "getInfoContractFunds",
      "outputs": [
        {
          "name": "_contractFunds",
          "type": "uint256"
        }
      ],
      "payable": false,
      "stateMutability": "view",
      "type": "function"
    },
    {
      "constant": true,
      "inputs": [
        {
          "name": "_depositor",
          "type": "address"
        }
      ],
      "name": "isDepositor",
      "outputs": [
        {
          "name": "_isIndeed",
          "type": "bool"
        }
      ],
      "payable": false,
      "stateMutability": "view",
      "type": "function"
    },
    {
      "constant": true,
      "inputs": [],
      "name": "getNewOwner",
      "outputs": [
        {
          "name": "_newOwner",
          "type": "address"
        }
      ],
      "payable": false,
      "stateMutability": "view",
      "type": "function"
    },
    {
      "constant": true,
      "inputs": [],
      "name": "isStopped",
      "outputs": [
        {
          "name": "_stop",
          "type": "bool"
        }
      ],
      "payable": false,
      "stateMutability": "view",
      "type": "function"
    },
    {
      "constant": true,
      "inputs": [],
      "name": "newHashTicket",
      "outputs": [
        {
          "name": "_hashTicket",
          "type": "bytes32"
        }
      ],
      "payable": false,
      "stateMutability": "view",
      "type": "function"
    },
    {
      "constant": true,
      "inputs": [
        {
          "name": "_hashTicket",
          "type": "bytes32"
        }
      ],
      "name": "getInfoDeposit",
      "outputs": [
        {
          "name": "_depositor",
          "type": "address"
        },
        {
          "name": "_amount",
          "type": "uint256"
        }
      ],
      "payable": false,
      "stateMutability": "view",
      "type": "function"
    },
    {
      "constant": true,
      "inputs": [
        {
          "name": "_hashTicket",
          "type": "bytes32"
        }
      ],
      "name": "isExpired",
      "outputs": [
        {
          "name": "_isExpired",
          "type": "bool"
        }
      ],
      "payable": false,
      "stateMutability": "view",
      "type": "function"
    },
    {
      "constant": false,
      "inputs": [
        {
          "name": "_hashTicket",
          "type": "bytes32"
        }
      ],
      "name": "emergencyWithdrawal",
      "outputs": [
        {
          "name": "_success",
          "type": "bool"
        }
      ],
      "payable": false,
      "stateMutability": "nonpayable",
      "type": "function"
    },
    {
      "constant": false,
      "inputs": [
        {
          "name": "_password1",
          "type": "bytes32"
        },
        {
          "name": "_password2",
          "type": "bytes32"
        }
      ],
      "name": "executeTransferToExchange",
      "outputs": [
        {
          "name": "_success",
          "type": "bool"
        }
      ],
      "payable": false,
      "stateMutability": "nonpayable",
      "type": "function"
    },
    {
      "constant": true,
      "inputs": [],
      "name": "getOwner",
      "outputs": [
        {
          "name": "_owner",
          "type": "address"
        }
      ],
      "payable": false,
      "stateMutability": "view",
      "type": "function"
    },
    {
      "constant": true,
      "inputs": [],
      "name": "transferCommission",
      "outputs": [
        {
          "name": "",
          "type": "uint256"
        }
      ],
      "payable": false,
      "stateMutability": "view",
      "type": "function"
    },
    {
      "constant": true,
      "inputs": [],
      "name": "getInfoContractCommissions",
      "outputs": [
        {
          "name": "_contractCommissions",
          "type": "uint256"
        }
      ],
      "payable": false,
      "stateMutability": "view",
      "type": "function"
    },
    {
      "constant": false,
      "inputs": [
        {
          "name": "_hashTicket",
          "type": "bytes32"
        },
        {
          "name": "_deadline",
          "type": "uint256"
        }
      ],
      "name": "depositFundsTransferExchange",
      "outputs": [
        {
          "name": "_success",
          "type": "bool"
        }
      ],
      "payable": true,
      "stateMutability": "payable",
      "type": "function"
    },
    {
      "constant": false,
      "inputs": [
        {
          "name": "_newOwner",
          "type": "address"
        }
      ],
      "name": "changeOwner",
      "outputs": [
        {
          "name": "_success",
          "type": "bool"
        }
      ],
      "payable": false,
      "stateMutability": "nonpayable",
      "type": "function"
    },
    {
      "constant": false,
      "inputs": [],
      "name": "resumeContract",
      "outputs": [
        {
          "name": "_success",
          "type": "bool"
        }
      ],
      "payable": false,
      "stateMutability": "nonpayable",
      "type": "function"
    },
    {
      "constant": true,
      "inputs": [
        {
          "name": "_hashTicket",
          "type": "bytes32"
        }
      ],
      "name": "getInfoTransfer",
      "outputs": [
        {
          "name": "_amount",
          "type": "uint256"
        },
        {
          "name": "_deadline",
          "type": "uint256"
        }
      ],
      "payable": false,
      "stateMutability": "view",
      "type": "function"
    },
    {
      "constant": true,
      "inputs": [
        {
          "name": "_hashTicket",
          "type": "bytes32"
        }
      ],
      "name": "getInfoCommission",
      "outputs": [
        {
          "name": "_commissionAmount",
          "type": "uint256"
        }
      ],
      "payable": false,
      "stateMutability": "view",
      "type": "function"
    },
    {
      "constant": false,
      "inputs": [],
      "name": "confirmChangeOwner",
      "outputs": [
        {
          "name": "_success",
          "type": "bool"
        }
      ],
      "payable": false,
      "stateMutability": "nonpayable",
      "type": "function"
    },
    {
      "constant": true,
      "inputs": [
        {
          "name": "_beneficiary",
          "type": "address"
        },
        {
          "name": "_password",
          "type": "bytes32"
        }
      ],
      "name": "newHashTicketTransfer",
      "outputs": [
        {
          "name": "_hashTicketTransfer",
          "type": "bytes32"
        }
      ],
      "payable": false,
      "stateMutability": "view",
      "type": "function"
    },
    {
      "constant": false,
      "inputs": [
        {
          "name": "_hashTicket",
          "type": "bytes32"
        }
      ],
      "name": "cancelTransferExchange",
      "outputs": [
        {
          "name": "_success",
          "type": "bool"
        }
      ],
      "payable": false,
      "stateMutability": "nonpayable",
      "type": "function"
    },
    {
      "inputs": [
        {
          "name": "_deadlineLimit",
          "type": "uint256"
        },
        {
          "name": "_transferCommission",
          "type": "uint256"
        }
      ],
      "payable": false,
      "stateMutability": "nonpayable",
      "type": "constructor"
    },
    {
      "anonymous": false,
      "inputs": [
        {
          "indexed": false,
          "name": "_sender",
          "type": "address"
        },
        {
          "indexed": false,
          "name": "_deadlineLimit",
          "type": "uint256"
        },
        {
          "indexed": false,
          "name": "_transferCommission",
          "type": "uint256"
        }
      ],
      "name": "LogRemittanceNew",
      "type": "event"
    },
    {
      "anonymous": false,
      "inputs": [
        {
          "indexed": false,
          "name": "_sender",
          "type": "address"
        },
        {
          "indexed": false,
          "name": "_hashTicket",
          "type": "bytes32"
        },
        {
          "indexed": false,
          "name": "_deadline",
          "type": "uint256"
        }
      ],
      "name": "LogRemittanceDepositFundsTransferExchange",
      "type": "event"
    },
    {
      "anonymous": false,
      "inputs": [
        {
          "indexed": false,
          "name": "_sender",
          "type": "address"
        },
        {
          "indexed": false,
          "name": "_hashTicket",
          "type": "bytes32"
        }
      ],
      "name": "LogRemittanceCancelTransferExchange",
      "type": "event"
    },
    {
      "anonymous": false,
      "inputs": [
        {
          "indexed": false,
          "name": "_sender",
          "type": "address"
        },
        {
          "indexed": false,
          "name": "_transferAmount",
          "type": "uint256"
        }
      ],
      "name": "LogRemittanceExecuteTransferToExchange",
      "type": "event"
    },
    {
      "anonymous": false,
      "inputs": [
        {
          "indexed": false,
          "name": "_sender",
          "type": "address"
        }
      ],
      "name": "LogFundsManagerNew",
      "type": "event"
    },
    {
      "anonymous": false,
      "inputs": [
        {
          "indexed": false,
          "name": "_sender",
          "type": "address"
        },
        {
          "indexed": false,
          "name": "value",
          "type": "uint256"
        }
      ],
      "name": "LogFundsManagerDepositFunds",
      "type": "event"
    },
    {
      "anonymous": false,
      "inputs": [
        {
          "indexed": false,
          "name": "_sender",
          "type": "address"
        },
        {
          "indexed": false,
          "name": "_depositor",
          "type": "address"
        },
        {
          "indexed": false,
          "name": "_amount",
          "type": "uint256"
        }
      ],
      "name": "LogFundsManagerWithdrawFunds",
      "type": "event"
    },
    {
      "anonymous": false,
      "inputs": [
        {
          "indexed": false,
          "name": "_sender",
          "type": "address"
        },
        {
          "indexed": false,
          "name": "_origin",
          "type": "address"
        },
        {
          "indexed": false,
          "name": "_password",
          "type": "bytes32"
        }
      ],
      "name": "LogFundsManagerTransferFunds",
      "type": "event"
    },
    {
      "anonymous": false,
      "inputs": [
        {
          "indexed": false,
          "name": "_sender",
          "type": "address"
        },
        {
          "indexed": false,
          "name": "_hashTicket",
          "type": "bytes32"
        },
        {
          "indexed": false,
          "name": "_commissionAmount",
          "type": "uint256"
        }
      ],
      "name": "LogFundsManagerChargeCommission",
      "type": "event"
    },
    {
      "anonymous": false,
      "inputs": [
        {
          "indexed": false,
          "name": "_sender",
          "type": "address"
        },
        {
          "indexed": false,
          "name": "_hashTicket",
          "type": "bytes32"
        }
      ],
      "name": "LogFundsManagerRefundCommission",
      "type": "event"
    },
    {
      "anonymous": false,
      "inputs": [
        {
          "indexed": false,
          "name": "_sender",
          "type": "address"
        },
        {
          "indexed": false,
          "name": "_depositor",
          "type": "address"
        },
        {
          "indexed": false,
          "name": "_amount",
          "type": "uint256"
        }
      ],
      "name": "LogFundsManagerEmergencyWithdrawal",
      "type": "event"
    },
    {
      "anonymous": false,
      "inputs": [
        {
          "indexed": false,
          "name": "_sender",
          "type": "address"
        }
      ],
      "name": "LogStoppableNew",
      "type": "event"
    },
    {
      "anonymous": false,
      "inputs": [
        {
          "indexed": false,
          "name": "_sender",
          "type": "address"
        }
      ],
      "name": "LogStoppableStopContract",
      "type": "event"
    },
    {
      "anonymous": false,
      "inputs": [
        {
          "indexed": false,
          "name": "_sender",
          "type": "address"
        }
      ],
      "name": "LogStoppableResumeContract",
      "type": "event"
    },
    {
      "anonymous": false,
      "inputs": [
        {
          "indexed": false,
          "name": "_sender",
          "type": "address"
        }
      ],
      "name": "LogOwnedNew",
      "type": "event"
    },
    {
      "anonymous": false,
      "inputs": [
        {
          "indexed": false,
          "name": "_sender",
          "type": "address"
        },
        {
          "indexed": false,
          "name": "_newOwner",
          "type": "address"
        }
      ],
      "name": "LogOwnedChangeOwner",
      "type": "event"
    },
    {
      "anonymous": false,
      "inputs": [
        {
          "indexed": false,
          "name": "_sender",
          "type": "address"
        },
        {
          "indexed": false,
          "name": "_newOwner",
          "type": "address"
        }
      ],
      "name": "LogOwnedConfirmChangeOwner",
      "type": "event"
    }
  ],
  "bytecode": "0x6060604052341561000f57600080fd5b604051604080611f2a83398101604052808051906020019091908051906020019091905050336000806101000a81548173ffffffffffffffffffffffffffffffffffffffff021916908373ffffffffffffffffffffffffffffffffffffffff1602179055507f3452aa652f56729b39a9198f36cd36bee3117c0112792f8707bab75d357e66e533604051808273ffffffffffffffffffffffffffffffffffffffff1673ffffffffffffffffffffffffffffffffffffffff16815260200191505060405180910390a17f8cc00c1f028a34a0114cd2b3c9d9cb40bfaaf3412c080091c5ca0db70b09554f33604051808273ffffffffffffffffffffffffffffffffffffffff1673ffffffffffffffffffffffffffffffffffffffff16815260200191505060405180910390a17fa85d5744e943446e99dbbbf95efc481fe63c2fe3541566ee70c4d75b4c5e9f8933604051808273ffffffffffffffffffffffffffffffffffffffff1673ffffffffffffffffffffffffffffffffffffffff16815260200191505060405180910390a18060088190555060008214156101bc57622014806007819055506101c4565b816007819055505b7f2a3d0b97110f675d090e140ceaa9a56f3226bb5bc6ac8646453b71c206127689338383604051808473ffffffffffffffffffffffffffffffffffffffff1673ffffffffffffffffffffffffffffffffffffffff168152602001838152602001828152602001935050505060405180910390a15050611ce2806102486000396000f300606060405260043610610128576000357c0100000000000000000000000000000000000000000000000000000000900463ffffffff1680630c42693b1461012d57806312253a6c1461019c57806320ec9603146101c95780632f70d1ba146101f25780633e2fe149146102435780633f683b6a1461029857806340e864bf146102c557806369f7ca28146102f65780636db2feb2146103645780636fbec0cd146103a35780638288245b146103e2578063893d20e81461042e57806389d0cd06146104835780638b5b1556146104ac57806397c9079c146104d5578063a6f9dae114610512578063c4bc5da514610563578063d2b36d5e14610590578063d4977aec146105d2578063eae043881461060d578063f2db87671461063a578063f7b3a4101461069c575b600080fd5b341561013857600080fd5b61017e600480803573ffffffffffffffffffffffffffffffffffffffff1690602001909190803560001916906020019091908035600019169060200190919050506106db565b60405180826000191660001916815260200191505060405180910390f35b34156101a757600080fd5b6101af610757565b604051808215151515815260200191505060405180910390f35b34156101d457600080fd5b6101dc610838565b6040518082815260200191505060405180910390f35b34156101fd57600080fd5b610229600480803573ffffffffffffffffffffffffffffffffffffffff1690602001909190505061089d565b604051808215151515815260200191505060405180910390f35b341561024e57600080fd5b61025661091f565b604051808273ffffffffffffffffffffffffffffffffffffffff1673ffffffffffffffffffffffffffffffffffffffff16815260200191505060405180910390f35b34156102a357600080fd5b6102ab610949565b604051808215151515815260200191505060405180910390f35b34156102d057600080fd5b6102d8610960565b60405180826000191660001916815260200191505060405180910390f35b341561030157600080fd5b61031b6004808035600019169060200190919050506109ff565b604051808373ffffffffffffffffffffffffffffffffffffffff1673ffffffffffffffffffffffffffffffffffffffff1681526020018281526020019250505060405180910390f35b341561036f57600080fd5b610389600480803560001916906020019091905050610a80565b604051808215151515815260200191505060405180910390f35b34156103ae57600080fd5b6103c8600480803560001916906020019091905050610ab8565b604051808215151515815260200191505060405180910390f35b34156103ed57600080fd5b61041460048080356000191690602001909190803560001916906020019091905050610cde565b604051808215151515815260200191505060405180910390f35b341561043957600080fd5b610441610e37565b604051808273ffffffffffffffffffffffffffffffffffffffff1673ffffffffffffffffffffffffffffffffffffffff16815260200191505060405180910390f35b341561048e57600080fd5b610496610e60565b6040518082815260200191505060405180910390f35b34156104b757600080fd5b6104bf610e66565b6040518082815260200191505060405180910390f35b6104f8600480803560001916906020019091908035906020019091905050610ecb565b604051808215151515815260200191505060405180910390f35b341561051d57600080fd5b610549600480803573ffffffffffffffffffffffffffffffffffffffff16906020019091905050610fd1565b604051808215151515815260200191505060405180910390f35b341561056e57600080fd5b610576611135565b604051808215151515815260200191505060405180910390f35b341561059b57600080fd5b6105b5600480803560001916906020019091905050611217565b604051808381526020018281526020019250505060405180910390f35b34156105dd57600080fd5b6105f760048080356000191690602001909190505061124f565b6040518082815260200191505060405180910390f35b341561061857600080fd5b61062061128a565b604051808215151515815260200191505060405180910390f35b341561064557600080fd5b61067e600480803573ffffffffffffffffffffffffffffffffffffffff169060200190919080356000191690602001909190505061142f565b60405180826000191660001916815260200191505060405180910390f35b34156106a757600080fd5b6106c1600480803560001916906020019091905050611444565b604051808215151515815260200191505060405180910390f35b6000838383604051808473ffffffffffffffffffffffffffffffffffffffff1673ffffffffffffffffffffffffffffffffffffffff166c01000000000000000000000000028152601401836000191660001916815260200182600019166000191681526020019350505050604051809103902090509392505050565b60008060009054906101000a900473ffffffffffffffffffffffffffffffffffffffff1673ffffffffffffffffffffffffffffffffffffffff163373ffffffffffffffffffffffffffffffffffffffff161415156107b457600080fd5b60018060146101000a81548160ff0219169083151502179055507fdc5107df853e31da94e9c53d37f4d2b899e5fb7b6308111493accae88b2659aa33604051808273ffffffffffffffffffffffffffffffffffffffff1673ffffffffffffffffffffffffffffffffffffffff16815260200191505060405180910390a16001905090565b60008060009054906101000a900473ffffffffffffffffffffffffffffffffffffffff1673ffffffffffffffffffffffffffffffffffffffff163373ffffffffffffffffffffffffffffffffffffffff1614151561089557600080fd5b600254905090565b6000808273ffffffffffffffffffffffffffffffffffffffff16141515156108c457600080fd5b6000600560008473ffffffffffffffffffffffffffffffffffffffff1673ffffffffffffffffffffffffffffffffffffffff168152602001908152602001600020541115610915576001905061091a565b600090505b919050565b6000600160009054906101000a900473ffffffffffffffffffffffffffffffffffffffff16905090565b6000600160149054906101000a900460ff16905090565b600033600560003373ffffffffffffffffffffffffffffffffffffffff1673ffffffffffffffffffffffffffffffffffffffff16815260200190815260200160002054604051808373ffffffffffffffffffffffffffffffffffffffff1673ffffffffffffffffffffffffffffffffffffffff166c01000000000000000000000000028152601401828152602001925050506040518091039020905090565b6000806000600102836000191614151515610a1957600080fd5b60046000846000191660001916815260200190815260200160002060000160009054906101000a900473ffffffffffffffffffffffffffffffffffffffff166004600085600019166000191681526020019081526020016000206001015491509150915091565b600060096000836000191660001916815260200190815260200160002054421115610aae5760019050610ab3565b600090505b919050565b60008060008060009054906101000a900473ffffffffffffffffffffffffffffffffffffffff1673ffffffffffffffffffffffffffffffffffffffff163373ffffffffffffffffffffffffffffffffffffffff16141515610b1857600080fd5b600060046000866000191660001916815260200190815260200160002060010154111515610b4557600080fd5b60046000856000191660001916815260200190815260200160002060000160009054906101000a900473ffffffffffffffffffffffffffffffffffffffff169150600460008560001916600019168152602001908152602001600020600101549050600460008560001916600019168152602001908152602001600020600080820160006101000a81549073ffffffffffffffffffffffffffffffffffffffff0219169055600182016000905550508173ffffffffffffffffffffffffffffffffffffffff166108fc829081150290604051600060405180830381858888f193505050501515610c3457600080fd5b7f0e369096c949a851cefff9f53674d9c7df739919ba098cb807b94e254649285d338383604051808473ffffffffffffffffffffffffffffffffffffffff1673ffffffffffffffffffffffffffffffffffffffff1681526020018373ffffffffffffffffffffffffffffffffffffffff1673ffffffffffffffffffffffffffffffffffffffff168152602001828152602001935050505060405180910390a1600192505050919050565b600080600080600160149054906101000a900460ff16151515610d0057600080fd5b610d0b3387876106db565b9250610d16836109ff565b8092508193505050600081111515610d2d57600080fd5b610d3683610a80565b151515610d4257600080fd5b610d4e83600854611575565b50610d58836109ff565b8092508193505050600960008460001916600019168152602001908152602001600020600090553373ffffffffffffffffffffffffffffffffffffffff166108fc829081150290604051600060405180830381858888f193505050501515610dbf57600080fd5b7f03e042d3374b77efbc7a99051d2dd3a3f2f8c46700ae84c0d534fa4a747e80c03382604051808373ffffffffffffffffffffffffffffffffffffffff1673ffffffffffffffffffffffffffffffffffffffff1681526020018281526020019250505060405180910390a16001935050505092915050565b60008060009054906101000a900473ffffffffffffffffffffffffffffffffffffffff16905090565b60085481565b60008060009054906101000a900473ffffffffffffffffffffffffffffffffffffffff1673ffffffffffffffffffffffffffffffffffffffff163373ffffffffffffffffffffffffffffffffffffffff16141515610ec357600080fd5b600354905090565b600080600160149054906101000a900460ff16151515610eea57600080fd5b610ef3846116e5565b1515610efe57600080fd5b6000831415610f12576202ac609050610f27565b6007548311151515610f2357600080fd5b8290505b804201600960008660001916600019168152602001908152602001600020819055507f451f8e1ed5bc3c059a2ae434719f53611b8ac57014ab0a305bcef27d3b1d14573385854201604051808473ffffffffffffffffffffffffffffffffffffffff1673ffffffffffffffffffffffffffffffffffffffff1681526020018360001916600019168152602001828152602001935050505060405180910390a1600191505092915050565b60008060009054906101000a900473ffffffffffffffffffffffffffffffffffffffff1673ffffffffffffffffffffffffffffffffffffffff163373ffffffffffffffffffffffffffffffffffffffff1614151561102e57600080fd5b60008273ffffffffffffffffffffffffffffffffffffffff161415151561105457600080fd5b81600160006101000a81548173ffffffffffffffffffffffffffffffffffffffff021916908373ffffffffffffffffffffffffffffffffffffffff1602179055507fae3fd6fbd4e7d8a4e53ecf89c51f72c00191a8d8d2c2fba3a5f4d9224996a6ae3383604051808373ffffffffffffffffffffffffffffffffffffffff1673ffffffffffffffffffffffffffffffffffffffff1681526020018273ffffffffffffffffffffffffffffffffffffffff1673ffffffffffffffffffffffffffffffffffffffff1681526020019250505060405180910390a160019050919050565b60008060009054906101000a900473ffffffffffffffffffffffffffffffffffffffff1673ffffffffffffffffffffffffffffffffffffffff163373ffffffffffffffffffffffffffffffffffffffff1614151561119257600080fd5b6000600160146101000a81548160ff0219169083151502179055507fbe8d7a0d2974b6d29c6b0e1f7199c77822dd586b666191ba97458c086c3d2d6433604051808273ffffffffffffffffffffffffffffffffffffffff1673ffffffffffffffffffffffffffffffffffffffff16815260200191505060405180910390a16001905090565b6000806000611225846109ff565b91505080600960008660001916600019168152602001908152602001600020549250925050915091565b60008060010282600019161415151561126757600080fd5b600660008360001916600019168152602001908152602001600020549050919050565b6000600160009054906101000a900473ffffffffffffffffffffffffffffffffffffffff1673ffffffffffffffffffffffffffffffffffffffff163373ffffffffffffffffffffffffffffffffffffffff161415156112e857600080fd5b600160009054906101000a900473ffffffffffffffffffffffffffffffffffffffff166000806101000a81548173ffffffffffffffffffffffffffffffffffffffff021916908373ffffffffffffffffffffffffffffffffffffffff160217905550600160006101000a81549073ffffffffffffffffffffffffffffffffffffffff02191690557f0d58bef243249903c29496d81a7ffbe3f394735e5ccd3e1dabbfec82c635c8d933600160009054906101000a900473ffffffffffffffffffffffffffffffffffffffff16604051808373ffffffffffffffffffffffffffffffffffffffff1673ffffffffffffffffffffffffffffffffffffffff1681526020018273ffffffffffffffffffffffffffffffffffffffff1673ffffffffffffffffffffffffffffffffffffffff1681526020019250505060405180910390a16001905090565b600061143c338484611884565b905092915050565b600080600560003373ffffffffffffffffffffffffffffffffffffffff1673ffffffffffffffffffffffffffffffffffffffff1681526020019081526020016000205411151561149357600080fd5b600160149054906101000a900460ff161515156114af57600080fd5b60006001028260001916141515156114c657600080fd5b600960008360001916600019168152602001908152602001600020600090556114ee82611995565b15156114f957600080fd5b7f5265ab51520ec54dbf57c0d078609dd4634f333c5ec3b0cfb204d047c3be26323383604051808373ffffffffffffffffffffffffffffffffffffffff1673ffffffffffffffffffffffffffffffffffffffff16815260200182600019166000191681526020019250505060405180910390a160019050919050565b600080600060010284600019161415151561158f57600080fd5b6000600660008660001916600019168152602001908152602001600020541415156115b957600080fd5b6004600085600019166000191681526020019081526020016000206001015490506000811115156115e957600080fd5b60008382031115156115fa57600080fd5b82600360008282540192505081905550826002600082825403925050819055508260066000866000191660001916815260200190815260200160002081905550828103600460008660001916600019168152602001908152602001600020600101819055507f682fd51c799021153d9aa3d6e55ab214059031a0f990d8091eb4a40c8046346d338585604051808473ffffffffffffffffffffffffffffffffffffffff1673ffffffffffffffffffffffffffffffffffffffff1681526020018360001916600019168152602001828152602001935050505060405180910390a1600191505092915050565b6000600160149054906101000a900460ff1615151561170357600080fd5b60003411151561171257600080fd5b600060010282600019161415151561172957600080fd5b3360046000846000191660001916815260200190815260200160002060000160006101000a81548173ffffffffffffffffffffffffffffffffffffffff021916908373ffffffffffffffffffffffffffffffffffffffff16021790555034600460008460001916600019168152602001908152602001600020600101600082825401925050819055506001600560003373ffffffffffffffffffffffffffffffffffffffff1673ffffffffffffffffffffffffffffffffffffffff16815260200190815260200160002060008282540192505081905550346002600082825401925050819055507f6092e1cac1a66fd4f2c747dd5201a45f08c503ce48abc091a8203e6821c12b9b3334604051808373ffffffffffffffffffffffffffffffffffffffff1673ffffffffffffffffffffffffffffffffffffffff1681526020018281526020019250505060405180910390a160019050919050565b6000808473ffffffffffffffffffffffffffffffffffffffff16141515156118ab57600080fd5b60008373ffffffffffffffffffffffffffffffffffffffff16141515156118d157600080fd5b60006001028260001916141515156118e857600080fd5b338383604051808473ffffffffffffffffffffffffffffffffffffffff1673ffffffffffffffffffffffffffffffffffffffff166c010000000000000000000000000281526014018373ffffffffffffffffffffffffffffffffffffffff1673ffffffffffffffffffffffffffffffffffffffff166c0100000000000000000000000002815260140182600019166000191681526020019350505050604051809103902090509392505050565b600080600080600560003373ffffffffffffffffffffffffffffffffffffffff1673ffffffffffffffffffffffffffffffffffffffff168152602001908152602001600020541115156119e757600080fd5b600160149054906101000a900460ff16151515611a0357600080fd5b6000600102846000191614151515611a1a57600080fd5b600060046000866000191660001916815260200190815260200160002060010154111515611a4757600080fd5b3373ffffffffffffffffffffffffffffffffffffffff1660046000866000191660001916815260200190815260200160002060000160009054906101000a900473ffffffffffffffffffffffffffffffffffffffff1673ffffffffffffffffffffffffffffffffffffffff16141515611abf57600080fd5b60046000856000191660001916815260200190815260200160002060000160009054906101000a900473ffffffffffffffffffffffffffffffffffffffff169150600460008560001916600019168152602001908152602001600020600101549050600460008560001916600019168152602001908152602001600020600080820160006101000a81549073ffffffffffffffffffffffffffffffffffffffff0219169055600182016000905550506001600560003373ffffffffffffffffffffffffffffffffffffffff1673ffffffffffffffffffffffffffffffffffffffff16815260200190815260200160002060008282540392505081905550806002600082825403925050819055508173ffffffffffffffffffffffffffffffffffffffff166108fc829081150290604051600060405180830381858888f193505050501515611c0c57600080fd5b7f3ec6c1044b640f438ecc48a7bc63dca1fa7cbca4e71c82116bcf4c44788ff1ca338383604051808473ffffffffffffffffffffffffffffffffffffffff1673ffffffffffffffffffffffffffffffffffffffff1681526020018373ffffffffffffffffffffffffffffffffffffffff1673ffffffffffffffffffffffffffffffffffffffff168152602001828152602001935050505060405180910390a16001925050509190505600a165627a7a72305820b9b22f64810867f5e505d634d546c7703a28e5bb918bc0a7145d37c115f0dd860029",
  "source": "pragma solidity ^0.4.4;\n\n/*\nRemittance\nYou will create a smart contract named Remittance whereby:\n\nThere are three people: Alice, Bob & Carol:\n- Alice wants to send funds to Bob, but she only has ether & Bob wants to be paid in local currency.\nluckily, Carol runs an exchange shop that converts ether to local currency.\n- Therefore, to get the funds to Bob, Alice will allow the funds to be transferred through Carol's Exchange Shop. \nCarol will convert the ether from Alice into local currency for Bob (possibly minus commission).\n\nTo successfully withdraw the ether from Alice, Carol needs to submit two passwords to Alice's Remittance contract:\n  - one password that Alice gave to Carol in an email\n  - and another password that Alice sent to Bob over SMS.\n\nSince they each have only half of the puzzle, Bob & Carol need to meet in person so they can supply both passwords to the contract. \nThis is a security measure. It may help to understand this use-case as similar to a 2-factor authentication.\n\nOnce Carol & Bob meet and Bob gives Carol his password from Alice, Carol can submit both passwords to Alice's remittance contract. \nIf the passwords are correct, the contract will release the ether to Carol who will then convert it into local\nfunds and give those to Bob (again, possibly minus commission).\n\nOf course, for safety, no one should send their passwords to the blockchain in the clear.\n\nStretch goals:\n- add a deadline, after which Alice can claim back the unchallenged Ether\n- add a limit to how far in the future the deadline can be\n- add a kill switch to the whole contract\n- plug a security hole (which one?) by changing one password to the recipient's address\n- make the contract a utility that can be used by David, Emma and anybody with an address\n- make you, the owner of the contract, take a cut of the Ethers smaller than what it would cost Alice to deploy the same contract herself\n*/\n\n/* \n\nWorkflow:\n- Sender requests a newHashTicketTransferExchange\n- Sender deposits funds with the hash-ticket\n- Exchange withdraws the funds providing the 2 passwords\n\nCore functions:\n- Constructor\n- newHashTicketTransferExchange\n- depositFundsTransferExchange\n- cancelTransferExchange\n- executeTransferToExchange\n\nSupport functions:\n- isExpired\n- getInfoTransfer\n\n*/\nimport \"./MyShared/FundsManager.sol\";\n    //is Funded includes as well:\n    // - Owned\n    // - Stoppable\ncontract Remittance is FundsManager {\n    uint private deadlineLimit;\n    uint constant DEADLINELIMIT = 365 * 86400 / 15; // 2,102,400 = 1 year of blocks\n    uint constant DEFAULTDEADLINE = 175200; // 1 month\n    uint public transferCommission;\n\n    mapping (bytes32 => uint ) transfers; //hashTicket => deadline\n\n// CORE FUNCTIONS\n\n        event LogRemittanceNew (address _sender, uint _deadlineLimit, uint _transferCommission);\n        // Constructor\n        // If deadlineLimit is not provided the default is applied\n    function Remittance (uint _deadlineLimit, uint _transferCommission)\n        public\n    {\n        transferCommission = _transferCommission;\n\n        if (_deadlineLimit == 0) \n            deadlineLimit = DEADLINELIMIT; // Default deadline\n        else\n            deadlineLimit = _deadlineLimit;\n\n        LogRemittanceNew (msg.sender, _deadlineLimit, _transferCommission);\n    }\n\n        // This function \"extends\" the FundsManager.sol newHashTicket functions to support a 3rd party Exchange\n        // The hash-ticket is calculated with both passwords and the address of the trusted exchange\n        // --> Hashing with the exchange address ensures us that only the exchange will be able to withdraw the funds\n        // PURE so the execution of this function doesn't go to the network but will be executed in our local copy\n    function newHashTicketTransferExchange (address _exchange, bytes32 _pwdBeneficiary, bytes32 _pwdExchange)\n        pure\n        public\n        returns (bytes32 _hashTicket)\n    {\n        return keccak256 (_exchange, _pwdBeneficiary, _pwdExchange);\n    }\n\n        event LogRemittanceDepositFundsTransferExchange (address _sender, bytes32 _hashTicket, uint _deadline);\n        // This function \"extends\" FundsManager.sol depositFunds()\n        // Adds deadline requirement. If none is provided the default deadline is applied\n    function depositFundsTransferExchange (bytes32 _hashTicket, uint _deadline)\n        onlyIfRunning\n        payable\n        public\n        returns (bool _success)\n    {       \n        require(depositFunds (_hashTicket)); // FundsManager.sol function\n\n        uint newTransferDeadline;\n        \n        if (_deadline == 0)\n        {\n            newTransferDeadline = DEFAULTDEADLINE;\n        }\n        else \n        {\n            require (_deadline <= deadlineLimit);\n            newTransferDeadline = _deadline;\n        }\n\n        transfers[_hashTicket] = now + newTransferDeadline;\n\n        LogRemittanceDepositFundsTransferExchange (msg.sender, _hashTicket, now + _deadline);\n        return true;\n    }\n\n        event LogRemittanceCancelTransferExchange (address _sender, bytes32 _hashTicket);\n        // This function extends FundsManager.sol withdrawFunds()\n        // Deletes deadline information\n        // Transfers back to sender the funds\n    function cancelTransferExchange (bytes32 _hashTicket)\n        onlyDepositors\n        onlyIfRunning\n        public\n        returns (bool _success)\n    {\n        require (_hashTicket != 0);\n\n        delete transfers[_hashTicket];\n\n        require (withdrawFunds(_hashTicket));\n\n        LogRemittanceCancelTransferExchange (msg.sender, _hashTicket);\n        return true;\n    }\n\n        event LogRemittanceExecuteTransferToExchange (address _sender, uint _transferAmount);\n        // Function to be executed from the Exchange address to withdraw the Transfer funds\n        // If the exchange sends the correct passwords, the resultant hash key will already exist in transfers mapping\n    function executeTransferToExchange (bytes32 _password1, bytes32 _password2)\n        onlyIfRunning\n        public\n        returns (bool _success)\n    {\n        bytes32 hashTicket = newHashTicketTransferExchange (msg.sender, _password1, _password2); //the withdrawer address will be used to recalculate the hash key\n        \n        address depositor;\n        uint256 transferAmount;\n        \n        (depositor, transferAmount) = getInfoDeposit(hashTicket);\n        require (transferAmount > 0); //prevent re-entry\n        require (!isExpired(hashTicket)); //prevent withdrawal when expired\n        \n        chargeCommission(hashTicket, transferCommission); //charge Remittance contract's commission\n        (depositor, transferAmount) = getInfoDeposit(hashTicket);\n\n        delete transfers[hashTicket]; //optimistic accounting\n\n        msg.sender.transfer(transferAmount); //transfer to exchange\n\n        LogRemittanceExecuteTransferToExchange (msg.sender, transferAmount);\n        return true;\n    }\n\n// SUPPORT FUNCTIONS\n\n    function isExpired (bytes32 _hashTicket) \n        view\n        public \n        returns(bool _isExpired) \n    {\n        if (now > transfers[_hashTicket])\n            return true;\n        else \n            return false;        \n    }\n\n    function getInfoTransfer (bytes32 _hashTicket)\n        view\n        public\n        returns (uint256 _amount, uint _deadline)\n    {\n        var(, amount) = getInfoDeposit(_hashTicket);\n        return ( amount, transfers[_hashTicket]);\n    }\n}",
  "sourcePath": "/home/jordi/b9/Unit4/SP_Remit/contracts/Remittance.sol",
  "compiler": {
    "name": "solc",
    "version": "0.4.18+commit.9cf6e910.Emscripten.clang"
  },
  "schemaVersion": "1.0.1",
  "updatedAt": "2018-02-03T21:05:59.485Z"
}