{
  "contractName": "Remittance",
  "abi": [
    {
      "constant": false,
      "inputs": [],
      "name": "stopContract",
      "outputs": [
        {
          "name": "_success",
          "type": "bool"
        }
      ],
      "payable": false,
      "stateMutability": "nonpayable",
      "type": "function"
    },
    {
      "constant": false,
      "inputs": [
        {
          "name": "_depositor",
          "type": "address"
        },
        {
          "name": "_newBalance",
          "type": "uint256"
        }
      ],
      "name": "cashierUpdateDepositorBalance",
      "outputs": [
        {
          "name": "_success",
          "type": "bool"
        }
      ],
      "payable": false,
      "stateMutability": "nonpayable",
      "type": "function"
    },
    {
      "constant": false,
      "inputs": [
        {
          "name": "_amount",
          "type": "uint256"
        }
      ],
      "name": "withdrawFunds",
      "outputs": [
        {
          "name": "_success",
          "type": "bool"
        }
      ],
      "payable": false,
      "stateMutability": "nonpayable",
      "type": "function"
    },
    {
      "constant": true,
      "inputs": [
        {
          "name": "_depositor",
          "type": "address"
        }
      ],
      "name": "isDepositor",
      "outputs": [
        {
          "name": "_is",
          "type": "bool"
        }
      ],
      "payable": false,
      "stateMutability": "view",
      "type": "function"
    },
    {
      "constant": false,
      "inputs": [
        {
          "name": "_beneficiary",
          "type": "address"
        },
        {
          "name": "_password1",
          "type": "bytes32"
        },
        {
          "name": "_password2",
          "type": "bytes32"
        }
      ],
      "name": "withdrawFromExchange",
      "outputs": [
        {
          "name": "_success",
          "type": "bool"
        }
      ],
      "payable": false,
      "stateMutability": "nonpayable",
      "type": "function"
    },
    {
      "constant": true,
      "inputs": [
        {
          "name": "_pwdBeneficiary",
          "type": "bytes32"
        },
        {
          "name": "_beneficiary",
          "type": "address"
        },
        {
          "name": "_pwdExchange",
          "type": "bytes32"
        }
      ],
      "name": "newTransferHashKey",
      "outputs": [
        {
          "name": "_hashKey",
          "type": "bytes32"
        }
      ],
      "payable": false,
      "stateMutability": "view",
      "type": "function"
    },
    {
      "constant": true,
      "inputs": [],
      "name": "getNewOwner",
      "outputs": [
        {
          "name": "_newOwner",
          "type": "address"
        }
      ],
      "payable": false,
      "stateMutability": "view",
      "type": "function"
    },
    {
      "constant": true,
      "inputs": [],
      "name": "isStopped",
      "outputs": [
        {
          "name": "_stop",
          "type": "bool"
        }
      ],
      "payable": false,
      "stateMutability": "view",
      "type": "function"
    },
    {
      "constant": false,
      "inputs": [
        {
          "name": "_hashKey",
          "type": "bytes32"
        }
      ],
      "name": "removeTransferWithExchange",
      "outputs": [
        {
          "name": "_success",
          "type": "bool"
        }
      ],
      "payable": false,
      "stateMutability": "nonpayable",
      "type": "function"
    },
    {
      "constant": false,
      "inputs": [
        {
          "name": "_cashier",
          "type": "address"
        }
      ],
      "name": "addCashier",
      "outputs": [
        {
          "name": "_success",
          "type": "bool"
        }
      ],
      "payable": false,
      "stateMutability": "nonpayable",
      "type": "function"
    },
    {
      "constant": false,
      "inputs": [
        {
          "name": "_amount",
          "type": "uint256"
        }
      ],
      "name": "spendFunds",
      "outputs": [
        {
          "name": "_success",
          "type": "bool"
        }
      ],
      "payable": false,
      "stateMutability": "nonpayable",
      "type": "function"
    },
    {
      "constant": false,
      "inputs": [
        {
          "name": "_beneficiary",
          "type": "address"
        },
        {
          "name": "_amount",
          "type": "uint256"
        }
      ],
      "name": "emergencyRefund",
      "outputs": [
        {
          "name": "_success",
          "type": "bool"
        }
      ],
      "payable": false,
      "stateMutability": "nonpayable",
      "type": "function"
    },
    {
      "constant": true,
      "inputs": [
        {
          "name": "_hashKey",
          "type": "bytes32"
        }
      ],
      "name": "isExpired",
      "outputs": [
        {
          "name": "_isExpired",
          "type": "bool"
        }
      ],
      "payable": false,
      "stateMutability": "view",
      "type": "function"
    },
    {
      "constant": true,
      "inputs": [],
      "name": "getContractBalance",
      "outputs": [
        {
          "name": "_contractBalance",
          "type": "uint256"
        }
      ],
      "payable": false,
      "stateMutability": "view",
      "type": "function"
    },
    {
      "constant": false,
      "inputs": [
        {
          "name": "_hashKey",
          "type": "bytes32"
        },
        {
          "name": "_amount",
          "type": "uint256"
        },
        {
          "name": "_deadline",
          "type": "uint256"
        }
      ],
      "name": "newTransferWithExchange",
      "outputs": [
        {
          "name": "_success",
          "type": "bool"
        }
      ],
      "payable": false,
      "stateMutability": "nonpayable",
      "type": "function"
    },
    {
      "constant": false,
      "inputs": [
        {
          "name": "_from",
          "type": "address"
        },
        {
          "name": "_to",
          "type": "address"
        },
        {
          "name": "_amount",
          "type": "uint256"
        }
      ],
      "name": "cashierMoveDeposits",
      "outputs": [
        {
          "name": "_success",
          "type": "bool"
        }
      ],
      "payable": false,
      "stateMutability": "nonpayable",
      "type": "function"
    },
    {
      "constant": true,
      "inputs": [
        {
          "name": "_cashier",
          "type": "address"
        }
      ],
      "name": "isCashier",
      "outputs": [
        {
          "name": "_is",
          "type": "bool"
        }
      ],
      "payable": false,
      "stateMutability": "view",
      "type": "function"
    },
    {
      "constant": true,
      "inputs": [],
      "name": "getOwner",
      "outputs": [
        {
          "name": "_owner",
          "type": "address"
        }
      ],
      "payable": false,
      "stateMutability": "view",
      "type": "function"
    },
    {
      "constant": false,
      "inputs": [
        {
          "name": "_newOwner",
          "type": "address"
        }
      ],
      "name": "changeOwner",
      "outputs": [
        {
          "name": "_success",
          "type": "bool"
        }
      ],
      "payable": false,
      "stateMutability": "nonpayable",
      "type": "function"
    },
    {
      "constant": true,
      "inputs": [
        {
          "name": "_depositor",
          "type": "address"
        }
      ],
      "name": "getDepositorBalance",
      "outputs": [
        {
          "name": "_balance",
          "type": "uint256"
        }
      ],
      "payable": false,
      "stateMutability": "view",
      "type": "function"
    },
    {
      "constant": false,
      "inputs": [],
      "name": "resumeContract",
      "outputs": [
        {
          "name": "_success",
          "type": "bool"
        }
      ],
      "payable": false,
      "stateMutability": "nonpayable",
      "type": "function"
    },
    {
      "constant": false,
      "inputs": [
        {
          "name": "_cashier",
          "type": "address"
        }
      ],
      "name": "removeCashier",
      "outputs": [
        {
          "name": "_success",
          "type": "bool"
        }
      ],
      "payable": false,
      "stateMutability": "nonpayable",
      "type": "function"
    },
    {
      "constant": false,
      "inputs": [],
      "name": "depositFunds",
      "outputs": [
        {
          "name": "_success",
          "type": "bool"
        }
      ],
      "payable": true,
      "stateMutability": "payable",
      "type": "function"
    },
    {
      "constant": false,
      "inputs": [],
      "name": "confirmChangeOwner",
      "outputs": [
        {
          "name": "_success",
          "type": "bool"
        }
      ],
      "payable": false,
      "stateMutability": "nonpayable",
      "type": "function"
    },
    {
      "constant": true,
      "inputs": [
        {
          "name": "_hashKey",
          "type": "bytes32"
        }
      ],
      "name": "getTransferWithExchange",
      "outputs": [
        {
          "name": "_amount",
          "type": "uint256"
        },
        {
          "name": "_deadline",
          "type": "uint256"
        }
      ],
      "payable": false,
      "stateMutability": "view",
      "type": "function"
    },
    {
      "inputs": [
        {
          "name": "_deadlineLimit",
          "type": "uint256"
        }
      ],
      "payable": false,
      "stateMutability": "nonpayable",
      "type": "constructor"
    },
    {
      "anonymous": false,
      "inputs": [
        {
          "indexed": false,
          "name": "_sender",
          "type": "address"
        },
        {
          "indexed": false,
          "name": "_deadlineLimit",
          "type": "uint256"
        }
      ],
      "name": "LogRemittanceNew",
      "type": "event"
    },
    {
      "anonymous": false,
      "inputs": [
        {
          "indexed": false,
          "name": "_sender",
          "type": "address"
        },
        {
          "indexed": false,
          "name": "_hashKey",
          "type": "bytes32"
        },
        {
          "indexed": false,
          "name": "_amount",
          "type": "uint256"
        },
        {
          "indexed": false,
          "name": "_deadline",
          "type": "uint256"
        }
      ],
      "name": "LogRemittanceNewTransferWithExchange",
      "type": "event"
    },
    {
      "anonymous": false,
      "inputs": [
        {
          "indexed": false,
          "name": "_sender",
          "type": "address"
        },
        {
          "indexed": false,
          "name": "_hashKey",
          "type": "bytes32"
        }
      ],
      "name": "LogRemittanceRemoveTransferWithExchange",
      "type": "event"
    },
    {
      "anonymous": false,
      "inputs": [
        {
          "indexed": false,
          "name": "_sender",
          "type": "address"
        },
        {
          "indexed": false,
          "name": "_beneficiary",
          "type": "address"
        },
        {
          "indexed": false,
          "name": "_withdrawalAmount",
          "type": "uint256"
        }
      ],
      "name": "LogRemittanceWithdrawFromExchange",
      "type": "event"
    },
    {
      "anonymous": false,
      "inputs": [
        {
          "indexed": false,
          "name": "_sender",
          "type": "address"
        }
      ],
      "name": "LogFundedNew",
      "type": "event"
    },
    {
      "anonymous": false,
      "inputs": [
        {
          "indexed": false,
          "name": "_sender",
          "type": "address"
        },
        {
          "indexed": false,
          "name": "_amount",
          "type": "uint256"
        }
      ],
      "name": "LogFundedDepositFunds",
      "type": "event"
    },
    {
      "anonymous": false,
      "inputs": [
        {
          "indexed": false,
          "name": "_sender",
          "type": "address"
        },
        {
          "indexed": false,
          "name": "_amount",
          "type": "uint256"
        }
      ],
      "name": "LogFundedWithdrawFunds",
      "type": "event"
    },
    {
      "anonymous": false,
      "inputs": [
        {
          "indexed": false,
          "name": "_sender",
          "type": "address"
        },
        {
          "indexed": false,
          "name": "_amount",
          "type": "uint256"
        }
      ],
      "name": "LogFundedSpendFunds",
      "type": "event"
    },
    {
      "anonymous": false,
      "inputs": [
        {
          "indexed": false,
          "name": "_sender",
          "type": "address"
        },
        {
          "indexed": false,
          "name": "_cashier",
          "type": "address"
        }
      ],
      "name": "LogFundedAddCashier",
      "type": "event"
    },
    {
      "anonymous": false,
      "inputs": [
        {
          "indexed": false,
          "name": "_sender",
          "type": "address"
        },
        {
          "indexed": false,
          "name": "_cashier",
          "type": "address"
        }
      ],
      "name": "LogFundedRemoveCashier",
      "type": "event"
    },
    {
      "anonymous": false,
      "inputs": [
        {
          "indexed": false,
          "name": "_sender",
          "type": "address"
        },
        {
          "indexed": false,
          "name": "_from",
          "type": "address"
        },
        {
          "indexed": false,
          "name": "_to",
          "type": "address"
        },
        {
          "indexed": false,
          "name": "_amount",
          "type": "uint256"
        }
      ],
      "name": "LogFundedCashierMoveDeposits",
      "type": "event"
    },
    {
      "anonymous": false,
      "inputs": [
        {
          "indexed": false,
          "name": "_sender",
          "type": "address"
        },
        {
          "indexed": false,
          "name": "_depositor",
          "type": "address"
        },
        {
          "indexed": false,
          "name": "_newBalance",
          "type": "uint256"
        }
      ],
      "name": "LogFundedCashierUpdateDepositorBalance",
      "type": "event"
    },
    {
      "anonymous": false,
      "inputs": [
        {
          "indexed": false,
          "name": "_sender",
          "type": "address"
        },
        {
          "indexed": false,
          "name": "_beneficiary",
          "type": "address"
        },
        {
          "indexed": false,
          "name": "_amount",
          "type": "uint256"
        }
      ],
      "name": "LogFundedEmergencyRefund",
      "type": "event"
    },
    {
      "anonymous": false,
      "inputs": [
        {
          "indexed": false,
          "name": "_sender",
          "type": "address"
        }
      ],
      "name": "LogStoppableStopContract",
      "type": "event"
    },
    {
      "anonymous": false,
      "inputs": [
        {
          "indexed": false,
          "name": "_sender",
          "type": "address"
        }
      ],
      "name": "LogStoppableResumeContract",
      "type": "event"
    },
    {
      "anonymous": false,
      "inputs": [
        {
          "indexed": false,
          "name": "_sender",
          "type": "address"
        }
      ],
      "name": "LogOwnedNew",
      "type": "event"
    },
    {
      "anonymous": false,
      "inputs": [
        {
          "indexed": false,
          "name": "_sender",
          "type": "address"
        },
        {
          "indexed": false,
          "name": "_newOwner",
          "type": "address"
        }
      ],
      "name": "LogOwnedChangeOwner",
      "type": "event"
    },
    {
      "anonymous": false,
      "inputs": [
        {
          "indexed": false,
          "name": "_sender",
          "type": "address"
        },
        {
          "indexed": false,
          "name": "_newOwner",
          "type": "address"
        }
      ],
      "name": "LogOwnedConfirmChangeOwner",
      "type": "event"
    }
  ],
  "bytecode": "0x6060604052341561000f57600080fd5b60405160208061254383398101604052808051906020019091905050336000806101000a81548173ffffffffffffffffffffffffffffffffffffffff021916908373ffffffffffffffffffffffffffffffffffffffff1602179055507f3452aa652f56729b39a9198f36cd36bee3117c0112792f8707bab75d357e66e533604051808273ffffffffffffffffffffffffffffffffffffffff1673ffffffffffffffffffffffffffffffffffffffff16815260200191505060405180910390a16001600460003373ffffffffffffffffffffffffffffffffffffffff1673ffffffffffffffffffffffffffffffffffffffff16815260200190815260200160002060006101000a81548160ff0219169083151502179055507fe68fe7de901d6a08214c40863581f99ab29b5778fe6bd2c827d833b56b4786e533604051808273ffffffffffffffffffffffffffffffffffffffff1673ffffffffffffffffffffffffffffffffffffffff16815260200191505060405180910390a160008114156101a157622014806007819055506101a9565b806007819055505b7fc2e800ff0425475ddd9a110be0eca91c5acacc97d00c19fb03624b11d707cfe33382604051808373ffffffffffffffffffffffffffffffffffffffff1673ffffffffffffffffffffffffffffffffffffffff1681526020018281526020019250505060405180910390a15061231f806102246000396000f300606060405260043610610149576000357c0100000000000000000000000000000000000000000000000000000000900463ffffffff16806312253a6c1461014e5780631468b3091461017b578063155dd5ee146101d55780632f70d1ba14610210578063384d4045146102615780633d65639a146102cc5780633e2fe1491461033b5780633f683b6a146103905780634873c7be146103bd578063619c3b99146103fc5780636457d7dc1461044d57806367f8a8b8146104885780636db2feb2146104e25780636f9fb98a146105215780637cba803f1461054a5780637cdc132a1461059b5780637dd45b8b14610614578063893d20e814610665578063a6f9dae1146106ba578063b79215d61461070b578063c4bc5da514610758578063d3b12eb814610785578063e2c41dbc146107d6578063eae04388146107f8578063ec694f0d14610825575b600080fd5b341561015957600080fd5b610161610867565b604051808215151515815260200191505060405180910390f35b341561018657600080fd5b6101bb600480803573ffffffffffffffffffffffffffffffffffffffff16906020019091908035906020019091905050610948565b604051808215151515815260200191505060405180910390f35b34156101e057600080fd5b6101f66004808035906020019091905050610aab565b604051808215151515815260200191505060405180910390f35b341561021b57600080fd5b610247600480803573ffffffffffffffffffffffffffffffffffffffff16906020019091905050610c95565b604051808215151515815260200191505060405180910390f35b341561026c57600080fd5b6102b2600480803573ffffffffffffffffffffffffffffffffffffffff169060200190919080356000191690602001909190803560001916906020019091905050610ce0565b604051808215151515815260200191505060405180910390f35b34156102d757600080fd5b61031d60048080356000191690602001909190803573ffffffffffffffffffffffffffffffffffffffff1690602001909190803560001916906020019091905050610e83565b60405180826000191660001916815260200191505060405180910390f35b341561034657600080fd5b61034e610ef4565b604051808273ffffffffffffffffffffffffffffffffffffffff1673ffffffffffffffffffffffffffffffffffffffff16815260200191505060405180910390f35b341561039b57600080fd5b6103a3610f1e565b604051808215151515815260200191505060405180910390f35b34156103c857600080fd5b6103e2600480803560001916906020019091905050610f35565b604051808215151515815260200191505060405180910390f35b341561040757600080fd5b610433600480803573ffffffffffffffffffffffffffffffffffffffff1690602001909190505061103c565b604051808215151515815260200191505060405180910390f35b341561045857600080fd5b61046e60048080359060200190919050506111d3565b604051808215151515815260200191505060405180910390f35b341561049357600080fd5b6104c8600480803573ffffffffffffffffffffffffffffffffffffffff169060200190919080359060200190919050506113fe565b604051808215151515815260200191505060405180910390f35b34156104ed57600080fd5b61050760048080356000191690602001909190505061168f565b604051808215151515815260200191505060405180910390f35b341561052c57600080fd5b6105346116ca565b6040518082815260200191505060405180910390f35b341561055557600080fd5b6105816004808035600019169060200190919080359060200190919080359060200190919050506116d4565b604051808215151515815260200191505060405180910390f35b34156105a657600080fd5b6105fa600480803573ffffffffffffffffffffffffffffffffffffffff1690602001909190803573ffffffffffffffffffffffffffffffffffffffff16906020019091908035906020019091905050611854565b604051808215151515815260200191505060405180910390f35b341561061f57600080fd5b61064b600480803573ffffffffffffffffffffffffffffffffffffffff16906020019091905050611ab6565b604051808215151515815260200191505060405180910390f35b341561067057600080fd5b610678611b0c565b604051808273ffffffffffffffffffffffffffffffffffffffff1673ffffffffffffffffffffffffffffffffffffffff16815260200191505060405180910390f35b34156106c557600080fd5b6106f1600480803573ffffffffffffffffffffffffffffffffffffffff16906020019091905050611b35565b604051808215151515815260200191505060405180910390f35b341561071657600080fd5b610742600480803573ffffffffffffffffffffffffffffffffffffffff16906020019091905050611c99565b6040518082815260200191505060405180910390f35b341561076357600080fd5b61076b611ce2565b604051808215151515815260200191505060405180910390f35b341561079057600080fd5b6107bc600480803573ffffffffffffffffffffffffffffffffffffffff16906020019091905050611dc4565b604051808215151515815260200191505060405180910390f35b6107de611f8d565b604051808215151515815260200191505060405180910390f35b341561080357600080fd5b61080b612088565b604051808215151515815260200191505060405180910390f35b341561083057600080fd5b61084a60048080356000191690602001909190505061222d565b604051808381526020018281526020019250505060405180910390f35b60008060009054906101000a900473ffffffffffffffffffffffffffffffffffffffff1673ffffffffffffffffffffffffffffffffffffffff163373ffffffffffffffffffffffffffffffffffffffff161415156108c457600080fd5b60018060146101000a81548160ff0219169083151502179055507fdc5107df853e31da94e9c53d37f4d2b899e5fb7b6308111493accae88b2659aa33604051808273ffffffffffffffffffffffffffffffffffffffff1673ffffffffffffffffffffffffffffffffffffffff16815260200191505060405180910390a16001905090565b6000600460003373ffffffffffffffffffffffffffffffffffffffff1673ffffffffffffffffffffffffffffffffffffffff16815260200190815260200160002060009054906101000a900460ff1615156109a257600080fd5b600160149054906101000a900460ff161515156109be57600080fd5b81600560008573ffffffffffffffffffffffffffffffffffffffff1673ffffffffffffffffffffffffffffffffffffffff168152602001908152602001600020819055507fc472ca3d2d146978d10303f53588d609093fd3f9e7a6f59713bae3756bb66e57338484604051808473ffffffffffffffffffffffffffffffffffffffff1673ffffffffffffffffffffffffffffffffffffffff1681526020018373ffffffffffffffffffffffffffffffffffffffff1673ffffffffffffffffffffffffffffffffffffffff168152602001828152602001935050505060405180910390a16001905092915050565b600080600560003373ffffffffffffffffffffffffffffffffffffffff1673ffffffffffffffffffffffffffffffffffffffff16815260200190815260200160002054111515610afa57600080fd5b600160149054906101000a900460ff16151515610b1657600080fd5b6000600254111515610b2757600080fd5b81600560003373ffffffffffffffffffffffffffffffffffffffff1673ffffffffffffffffffffffffffffffffffffffff1681526020019081526020016000205410151515610b7557600080fd5b600082111515610b8457600080fd5b8160026000828254039250508190555081600560003373ffffffffffffffffffffffffffffffffffffffff1673ffffffffffffffffffffffffffffffffffffffff168152602001908152602001600020600082825403925050819055503373ffffffffffffffffffffffffffffffffffffffff166108fc839081150290604051600060405180830381858888f193505050501515610c2157600080fd5b7f907c87443b7c486a4498fac21718c282bb00ea3263fff068699a08656763669a3383604051808373ffffffffffffffffffffffffffffffffffffffff1673ffffffffffffffffffffffffffffffffffffffff1681526020018281526020019250505060405180910390a160019050919050565b600080600560008473ffffffffffffffffffffffffffffffffffffffff1673ffffffffffffffffffffffffffffffffffffffff16815260200190815260200160002054119050919050565b6000806000600160149054906101000a900460ff16151515610d0157600080fd5b610d0c858786612277565b9150600860008360001916600019168152602001908152602001600020600001549050600081111515610d3e57600080fd5b80610d476116ca565b10151515610d5457600080fd5b610d5d8261168f565b151515610d6957600080fd5b600860008360001916600019168152602001908152602001600020600080820160009055600182016000905550503373ffffffffffffffffffffffffffffffffffffffff166108fc829081150290604051600060405180830381858888f193505050501515610dd757600080fd5b7f0cd356728e5e0ec147dee0b67543e020eec664c7d4b57c4c469be9e0656aba8f338783604051808473ffffffffffffffffffffffffffffffffffffffff1673ffffffffffffffffffffffffffffffffffffffff1681526020018373ffffffffffffffffffffffffffffffffffffffff1673ffffffffffffffffffffffffffffffffffffffff168152602001828152602001935050505060405180910390a16001925050509392505050565b60008060009054906101000a900473ffffffffffffffffffffffffffffffffffffffff1673ffffffffffffffffffffffffffffffffffffffff163373ffffffffffffffffffffffffffffffffffffffff16141515610ee057600080fd5b610eeb848484612277565b90509392505050565b6000600160009054906101000a900473ffffffffffffffffffffffffffffffffffffffff16905090565b6000600160149054906101000a900460ff16905090565b60008060009054906101000a900473ffffffffffffffffffffffffffffffffffffffff1673ffffffffffffffffffffffffffffffffffffffff163373ffffffffffffffffffffffffffffffffffffffff16141515610f9257600080fd5b600860008360001916600019168152602001908152602001600020600080820160009055600182016000905550507fef4437b7df986737ba4561ac86767b8d32cb06139ee0fb37e475477a32496ca03383604051808373ffffffffffffffffffffffffffffffffffffffff1673ffffffffffffffffffffffffffffffffffffffff16815260200182600019166000191681526020019250505060405180910390a160019050919050565b60008060009054906101000a900473ffffffffffffffffffffffffffffffffffffffff1673ffffffffffffffffffffffffffffffffffffffff163373ffffffffffffffffffffffffffffffffffffffff1614151561109957600080fd5b600160149054906101000a900460ff161515156110b557600080fd5b60008273ffffffffffffffffffffffffffffffffffffffff16141515156110db57600080fd5b6001600460008473ffffffffffffffffffffffffffffffffffffffff1673ffffffffffffffffffffffffffffffffffffffff16815260200190815260200160002060006101000a81548160ff0219169083151502179055507f46dc75f891188b0f605cc4e4fa13015d65591a3f1ae87f4fc5eeeb41b686a9873383604051808373ffffffffffffffffffffffffffffffffffffffff1673ffffffffffffffffffffffffffffffffffffffff1681526020018273ffffffffffffffffffffffffffffffffffffffff1673ffffffffffffffffffffffffffffffffffffffff1681526020019250505060405180910390a160019050919050565b600080600560003373ffffffffffffffffffffffffffffffffffffffff1673ffffffffffffffffffffffffffffffffffffffff1681526020019081526020016000205411151561122257600080fd5b600160149054906101000a900460ff1615151561123e57600080fd5b600060025411151561124f57600080fd5b81600560003373ffffffffffffffffffffffffffffffffffffffff1673ffffffffffffffffffffffffffffffffffffffff168152602001908152602001600020541015151561129d57600080fd5b600560003373ffffffffffffffffffffffffffffffffffffffff1673ffffffffffffffffffffffffffffffffffffffff1681526020019081526020016000205482141561132c57600560003373ffffffffffffffffffffffffffffffffffffffff1673ffffffffffffffffffffffffffffffffffffffff1681526020019081526020016000206000905561137a565b81600560003373ffffffffffffffffffffffffffffffffffffffff1673ffffffffffffffffffffffffffffffffffffffff168152602001908152602001600020600082825403925050819055505b816003600082825401925050819055507fd0cde6a28760b9ac8bd13517e8780a4f4e238f6bb74fa19d7ab431d061df87ea3383604051808373ffffffffffffffffffffffffffffffffffffffff1673ffffffffffffffffffffffffffffffffffffffff1681526020018281526020019250505060405180910390a160019050919050565b60008060009054906101000a900473ffffffffffffffffffffffffffffffffffffffff1673ffffffffffffffffffffffffffffffffffffffff163373ffffffffffffffffffffffffffffffffffffffff1614151561145b57600080fd5b8160025411151561146b57600080fd5b81600560008573ffffffffffffffffffffffffffffffffffffffff1673ffffffffffffffffffffffffffffffffffffffff16815260200190815260200160002054101515156114b957600080fd5b81600260008282540392505081905550600560008473ffffffffffffffffffffffffffffffffffffffff1673ffffffffffffffffffffffffffffffffffffffff1681526020019081526020016000205482141561155857600560008473ffffffffffffffffffffffffffffffffffffffff1673ffffffffffffffffffffffffffffffffffffffff168152602001908152602001600020600090556115a6565b81600560008573ffffffffffffffffffffffffffffffffffffffff1673ffffffffffffffffffffffffffffffffffffffff168152602001908152602001600020600082825403925050819055505b8273ffffffffffffffffffffffffffffffffffffffff166108fc839081150290604051600060405180830381858888f1935050505015156115e657600080fd5b7f3f477375acc3c435adc9e6df6724b60b6c65acb3c3560c5e0669148f501fd9b7338484604051808473ffffffffffffffffffffffffffffffffffffffff1673ffffffffffffffffffffffffffffffffffffffff1681526020018373ffffffffffffffffffffffffffffffffffffffff1673ffffffffffffffffffffffffffffffffffffffff168152602001828152602001935050505060405180910390a16001905092915050565b6000600860008360001916600019168152602001908152602001600020600101544211156116c057600190506116c5565b600090505b919050565b6000600254905090565b60008060009054906101000a900473ffffffffffffffffffffffffffffffffffffffff1673ffffffffffffffffffffffffffffffffffffffff163373ffffffffffffffffffffffffffffffffffffffff1614151561173157600080fd5b600160149054906101000a900460ff1615151561174d57600080fd5b60008311151561175c57600080fd5b60008211151561176b57600080fd5b600754821115151561177c57600080fd5b8260086000866000191660001916815260200190815260200160002060000181905550814201600860008660001916600019168152602001908152602001600020600101819055507f6a093d0dd4b75cca23a202769bea32a46b59fca2c7931ec2d0be301fa3f20321338585854201604051808573ffffffffffffffffffffffffffffffffffffffff1673ffffffffffffffffffffffffffffffffffffffff168152602001846000191660001916815260200183815260200182815260200194505050505060405180910390a1600190509392505050565b6000600460003373ffffffffffffffffffffffffffffffffffffffff1673ffffffffffffffffffffffffffffffffffffffff16815260200190815260200160002060009054906101000a900460ff1615156118ae57600080fd5b600160149054906101000a900460ff161515156118ca57600080fd5b81600560008673ffffffffffffffffffffffffffffffffffffffff1673ffffffffffffffffffffffffffffffffffffffff168152602001908152602001600020541015151561191857600080fd5b60008373ffffffffffffffffffffffffffffffffffffffff161415151561193e57600080fd5b81600560008673ffffffffffffffffffffffffffffffffffffffff1673ffffffffffffffffffffffffffffffffffffffff1681526020019081526020016000206000828254039250508190555081600560008573ffffffffffffffffffffffffffffffffffffffff1673ffffffffffffffffffffffffffffffffffffffff168152602001908152602001600020600082825401925050819055507f5988daed7666ccc67d9e91228a9d48ca4abd4250e643e26c620e3c1bb4e3e98333858585604051808573ffffffffffffffffffffffffffffffffffffffff1673ffffffffffffffffffffffffffffffffffffffff1681526020018473ffffffffffffffffffffffffffffffffffffffff1673ffffffffffffffffffffffffffffffffffffffff1681526020018373ffffffffffffffffffffffffffffffffffffffff1673ffffffffffffffffffffffffffffffffffffffff16815260200182815260200194505050505060405180910390a1600190509392505050565b6000600460008373ffffffffffffffffffffffffffffffffffffffff1673ffffffffffffffffffffffffffffffffffffffff16815260200190815260200160002060009054906101000a900460ff169050919050565b60008060009054906101000a900473ffffffffffffffffffffffffffffffffffffffff16905090565b60008060009054906101000a900473ffffffffffffffffffffffffffffffffffffffff1673ffffffffffffffffffffffffffffffffffffffff163373ffffffffffffffffffffffffffffffffffffffff16141515611b9257600080fd5b60008273ffffffffffffffffffffffffffffffffffffffff1614151515611bb857600080fd5b81600160006101000a81548173ffffffffffffffffffffffffffffffffffffffff021916908373ffffffffffffffffffffffffffffffffffffffff1602179055507fae3fd6fbd4e7d8a4e53ecf89c51f72c00191a8d8d2c2fba3a5f4d9224996a6ae3383604051808373ffffffffffffffffffffffffffffffffffffffff1673ffffffffffffffffffffffffffffffffffffffff1681526020018273ffffffffffffffffffffffffffffffffffffffff1673ffffffffffffffffffffffffffffffffffffffff1681526020019250505060405180910390a160019050919050565b6000600560008373ffffffffffffffffffffffffffffffffffffffff1673ffffffffffffffffffffffffffffffffffffffff168152602001908152602001600020549050919050565b60008060009054906101000a900473ffffffffffffffffffffffffffffffffffffffff1673ffffffffffffffffffffffffffffffffffffffff163373ffffffffffffffffffffffffffffffffffffffff16141515611d3f57600080fd5b6000600160146101000a81548160ff0219169083151502179055507fbe8d7a0d2974b6d29c6b0e1f7199c77822dd586b666191ba97458c086c3d2d6433604051808273ffffffffffffffffffffffffffffffffffffffff1673ffffffffffffffffffffffffffffffffffffffff16815260200191505060405180910390a16001905090565b60008060009054906101000a900473ffffffffffffffffffffffffffffffffffffffff1673ffffffffffffffffffffffffffffffffffffffff163373ffffffffffffffffffffffffffffffffffffffff16141515611e2157600080fd5b600160149054906101000a900460ff16151515611e3d57600080fd5b600460008373ffffffffffffffffffffffffffffffffffffffff1673ffffffffffffffffffffffffffffffffffffffff16815260200190815260200160002060009054906101000a900460ff161515611e9557600080fd5b6000600460008473ffffffffffffffffffffffffffffffffffffffff1673ffffffffffffffffffffffffffffffffffffffff16815260200190815260200160002060006101000a81548160ff0219169083151502179055507fb4e91836df982c7ee700e54f7a1ded1a97dd3e8603fa1782c8ce789b7c452e243383604051808373ffffffffffffffffffffffffffffffffffffffff1673ffffffffffffffffffffffffffffffffffffffff1681526020018273ffffffffffffffffffffffffffffffffffffffff1673ffffffffffffffffffffffffffffffffffffffff1681526020019250505060405180910390a160019050919050565b6000600160149054906101000a900460ff16151515611fab57600080fd5b3073ffffffffffffffffffffffffffffffffffffffff163160028190555034600560003373ffffffffffffffffffffffffffffffffffffffff1673ffffffffffffffffffffffffffffffffffffffff168152602001908152602001600020600082825401925050819055507f97b04a76e1da57a78ee04eb762cdb5c8bfcdb0511e6f5d88350791bfc1635c1c3334604051808373ffffffffffffffffffffffffffffffffffffffff1673ffffffffffffffffffffffffffffffffffffffff1681526020018281526020019250505060405180910390a16001905090565b6000600160009054906101000a900473ffffffffffffffffffffffffffffffffffffffff1673ffffffffffffffffffffffffffffffffffffffff163373ffffffffffffffffffffffffffffffffffffffff161415156120e657600080fd5b600160009054906101000a900473ffffffffffffffffffffffffffffffffffffffff166000806101000a81548173ffffffffffffffffffffffffffffffffffffffff021916908373ffffffffffffffffffffffffffffffffffffffff160217905550600160006101000a81549073ffffffffffffffffffffffffffffffffffffffff02191690557f0d58bef243249903c29496d81a7ffbe3f394735e5ccd3e1dabbfec82c635c8d933600160009054906101000a900473ffffffffffffffffffffffffffffffffffffffff16604051808373ffffffffffffffffffffffffffffffffffffffff1673ffffffffffffffffffffffffffffffffffffffff1681526020018273ffffffffffffffffffffffffffffffffffffffff1673ffffffffffffffffffffffffffffffffffffffff1681526020019250505060405180910390a16001905090565b600080600860008460001916600019168152602001908152602001600020600001546008600085600019166000191681526020019081526020016000206001015491509150915091565b60008383836040518084600019166000191681526020018373ffffffffffffffffffffffffffffffffffffffff1673ffffffffffffffffffffffffffffffffffffffff166c01000000000000000000000000028152601401826000191660001916815260200193505050506040518091039020905093925050505600a165627a7a72305820764403022b0697791628193ae9e284c843adfc5374855094914165782bb904d60029",
  "source": "pragma solidity ^0.4.4;\n\n/*\nRemittance\nYou will create a smart contract named Remittance whereby:\n\nThere are three people: Alice, Bob & Carol:\n- Alice wants to send funds to Bob, but she only has ether & Bob wants to be paid in local currency.\nluckily, Carol runs an exchange shop that converts ether to local currency.\n- Therefore, to get the funds to Bob, Alice will allow the funds to be transferred through Carol's Exchange Shop. \nCarol will convert the ether from Alice into local currency for Bob (possibly minus commission).\n\nTo successfully withdraw the ether from Alice, Carol needs to submit two passwords to Alice's Remittance contract:\n  - one password that Alice gave to Carol in an email\n  - and another password that Alice sent to Bob over SMS.\n\nSince they each have only half of the puzzle, Bob & Carol need to meet in person so they can supply both passwords to the contract. \nThis is a security measure. It may help to understand this use-case as similar to a 2-factor authentication.\n\nOnce Carol & Bob meet and Bob gives Carol his password from Alice, Carol can submit both passwords to Alice's remittance contract. \nIf the passwords are correct, the contract will release the ether to Carol who will then convert it into local\nfunds and give those to Bob (again, possibly minus commission).\n\nOf course, for safety, no one should send their passwords to the blockchain in the clear.\n\nStretch goals:\n- add a deadline, after which Alice can claim back the unchallenged Ether\n- add a limit to how far in the future the deadline can be\n- add a kill switch to the whole contract\n- plug a security hole (which one?) by changing one password to the recipient's address\n- make the contract a utility that can be used by David, Emma and anybody with an address\n- make you, the owner of the contract, take a cut of the Ethers smaller than what it would cost Alice to deploy the same contract herself\n*/\n\n/*\nPersonal note:\n- There shall be at least 2 contracts: Alice's Remittance and Carol's Exchange Shop\n- The Exchange will withdraw the funds from Alice's contract by submitting the 2 passwords\n- Passwords shall be sent over the Net encrypted already and shall match each other\n- Passwords shall not be stored uncrypted in the blockchain\n*/\n\nimport \"./MyShared/Funded.sol\";\n    //is Funded includes as well:\n    // - Owned\n    // - Stoppable\n\n    // Kill switch implemented in the Stoppable super contract\n\ncontract Remittance is Funded {\n    // Alice's Remittance contract\n    uint deadline;\n    uint deadlineLimit;\n\n    uint constant DEADLINELIMIT = 365 * 86400 / 15; // 2,102,40 = 1 year of blocks\n\n    struct Transfer {\n        uint amount;\n        uint deadline;\n    }\n    mapping (bytes32 => Transfer) transfersWithExchange; //hashKey => Transfer\n\n        event LogRemittanceNew (address _sender, uint _deadlineLimit);\n        // Constructor\n    function Remittance (uint _deadlineLimit)\n        public\n    {\n        if (_deadlineLimit == 0) \n            deadlineLimit = DEADLINELIMIT; // Default deadline\n        else\n            deadlineLimit = _deadlineLimit;\n\n        LogRemittanceNew (msg.sender, _deadlineLimit);\n    }\n\n    function isExpired (bytes32 _hashKey) \n        constant\n        public \n        returns(bool _isExpired) \n    {\n        if (now > transfersWithExchange[_hashKey].deadline)\n            return true;\n        else \n            return false;        \n    }\n\n        // PRIVATE\n        // The function is CONSTANT so the call and return values are NOT sent to the network but executed in our local copy\n        // --> This keeps this calculation \"off-chain\"\n    function newHashKey (bytes32 _pwdBeneficiary, address _beneficiary, bytes32 _pwdExchange)\n        pure\n        private\n        returns (bytes32 _hashKey)\n    {\n        return keccak256 (_pwdBeneficiary, _beneficiary, _pwdExchange);\n    }\n\n        // Public interface for newHashKey function\n        // Limited to be executed only by the Owner\n    function newTransferHashKey (bytes32 _pwdBeneficiary, address _beneficiary, bytes32 _pwdExchange)\n        onlyOwner\n        view\n        public\n        returns (bytes32 _hashKey)\n    {\n        return newHashKey (_pwdBeneficiary, _beneficiary, _pwdExchange);\n    }\n\n        event LogRemittanceNewTransferWithExchange (address _sender, bytes32 _hashKey, uint _amount, uint _deadline);\n        // Owner will use this function to register a new transaction to a beneficiary via an exchange\n        // Reminder: Funded.sol provides the deposit and withdrawal functions for Owner\n    function newTransferWithExchange (bytes32 _hashKey, uint _amount, uint _deadline)\n        onlyOwner\n        onlyIfRunning\n        public\n        returns (bool _success)\n    {\n        require (_amount > 0);\n\n        require (_deadline > 0);\n        require (_deadline <= deadlineLimit);\n\n        transfersWithExchange[_hashKey].amount = _amount; //regiter the NEW transfer\n        transfersWithExchange[_hashKey].deadline = now + _deadline; \n\n        LogRemittanceNewTransferWithExchange (msg.sender, _hashKey, _amount, now + _deadline);\n        return true;\n    }\n\n        event LogRemittanceRemoveTransferWithExchange (address _sender, bytes32 _hashKey);\n        // Owner can decide to remove an existing registered transfer\n    function removeTransferWithExchange (bytes32 _hashKey)\n        onlyOwner\n        public\n        returns (bool _success)\n    {\n        delete transfersWithExchange[_hashKey];\n\n        LogRemittanceRemoveTransferWithExchange (msg.sender, _hashKey);\n        return true;\n    }\n\n    function getTransferWithExchange (bytes32 _hashKey)\n        constant\n        public\n        returns (uint _amount, uint _deadline)\n    {\n        return (transfersWithExchange[_hashKey].amount, transfersWithExchange[_hashKey].deadline);\n    }\n\n        event LogRemittanceWithdrawFromExchange (address _sender, address _beneficiary, uint _withdrawalAmount);\n        // Function to be executed from the Exchange address to withdraw the funds for the beneficiary\n        // If the exchange sends the correct passwords and beneficiary address, the resultant hash key will already exist in our mapping\n    function withdrawFromExchange (address _beneficiary, bytes32 _password1, bytes32 _password2)\n        onlyIfRunning\n        public\n        returns (bool _success)\n    {\n        bytes32 withdrawalHashKey = newHashKey (_password1, _beneficiary, _password2); //calls the PRIVATE function\n\n        uint withdrawalAmount = transfersWithExchange[withdrawalHashKey].amount;\n        require (withdrawalAmount > 0); //prevent re-entry\n        require (getContractBalance() >= withdrawalAmount); //prevent over spending\n        require (!isExpired(withdrawalHashKey)); //prevent withdrawal when expired\n\n        delete transfersWithExchange[withdrawalHashKey]; //optimistic accounting\n        msg.sender.transfer(withdrawalAmount); //transfer to exchange\n\n        LogRemittanceWithdrawFromExchange (msg.sender, _beneficiary, withdrawalAmount);\n        return true;\n    }\n}",
  "sourcePath": "/home/jordi/b9/Unit4/SP_Remit/contracts/Remittance.sol",
  "compiler": {
    "name": "solc",
    "version": "0.4.18+commit.9cf6e910.Emscripten.clang"
  },
  "schemaVersion": "1.0.1",
  "updatedAt": "2018-02-01T09:14:12.812Z"
}